:043cee000480006fdf
:043cef0034202f73db
:043cf00000800f93ae
:043cf10003ff086362
:043cf20000900f939c
:043cf30003ff046364
:043cf40000b00f937a
:043cf50003ff006366
:043cf60000000f13a8
:043cf700000f046353
:043cf800000f006752
:043cf90034202f73d1
:043cfa00000f546300
:043cfb000040006f16
:043cfc005391e1936c
:043cfd0000001f178d
:043cfe00fc3f222342
:043cff00ff9ff06fc4
:043d0000000000932c
:043d010000000113aa
:043d02000000019329
:043d030000000213a7
:043d04000000029326
:043d050000000313a4
:043d06000000039323
:043d070000000413a1
:043d08000000049320
:043d0900000005139e
:043d0a00000005931d
:043d0b00000006139b
:043d0c00000006931a
:043d0d000000071398
:043d0e000000079317
:043d0f000000081395
:043d10000000089314
:043d11000000091392
:043d12000000099311
:043d130000000a138f
:043d140000000a930e
:043d150000000b138c
:043d160000000b930b
:043d170000000c1389
:043d180000000c9308
:043d190000000d1386
:043d1a0000000d9305
:043d1b0000000e1383
:043d1c0000000e9302
:043d1d0000000f1380
:043d1e0000000f93ff
:043d1f00f1402573d7
:043d20000005106327
:043d21000000029705
:043d22000102829385
:043d23003052907317
:043d240018005073c0
:043d25000000029701
:043d26000202829380
:043d27003052907313
:043d2800800002b75e
:043d2900fff2829390
:043d2a003b02907355
:043d2b0001f002930e
:043d2c003a02907354
:043d2d0000000297f9
:043d2e0001828293f9
:043d2f00305290730b
:043d3000302050737c
:043d3100303050736b
:043d3200304050735a
:043d330000000193f8
:043d340000000297f2
:043d3500eec28293c5
:043d36003052907304
:043d37000010051360
:043d380001f5151369
:043d390000054c63d2
:043d3a000ff0000f77
:043d3b0000100193e0
:043d3c0005d0089313
:043d3d00000005136a
:043d3e00000000730e
:043d3f0000000293eb
:043d400000028a6390
:043d41001052907319
:043d42000000b2b714
:043d430010928293c5
:043d44003022907326
:043d45003000507387
:043d460000000297e0
:043d47000142829320
:043d4800341290732e
:043d4900f1402573ad
:043d4a0030200073b2
:043d4b0000200193c0
:043d4c0000000093e0
:043d4d00000001135e
:043d4e000020d66318
:043d4f003030186395
:043d500000301663c6
:043d5100fe20dee38f
:043d52003030126398
:043d530000300193a8
:043d540000100093c8
:043d55000010011346
:043d56000020d66310
:043d57002e3018638f
:043d580000301663be
:043d5900fe20dee387
:043d5a002e30126392
:043d5b000040019390
:043d5c00fff00093e1
:043d5d00fff001135f
:043d5e000020d66308
:043d5f002c30186389
:043d600000301663b6
:043d6100fe20dee37f
:043d62002c3012638c
:043d63000050019378
:043d640000100093b8
:043d65000000011346
:043d66000020d66300
:043d67002a30186383
:043d680000301663ae
:043d6900fe20dee377
:043d6a002a30126386
:043d6b000060019360
:043d6c0000100093b0
:043d6d00fff001134f
:043d6e000020d663f8
:043d6f00283018637d
:043d700000301663a6
:043d7100fe20dee36f
:043d72002830126380
:043d73000070019348
:043d7400fff00093c9
:043d7500ffe0011357
:043d76000020d663f0
:043d77002630186377
:043d7800003016639e
:043d7900fe20dee367
:043d7a00263012637a
:043d7b000080019330
:043d7c0000000093b0
:043d7d00001001131e
:043d7e000020d463ea
:043d7f000030146399
:043d80002430166372
:043d8100fe20dee35f
:043d82000090019319
:043d8300fff00093ba
:043d84000010011317
:043d85000020d463e3
:043d86000030146392
:043d8700223018636b
:043d8800fe20dee358
:043d890000a0019302
:043d8a00ffe00093c3
:043d8b00fff0011331
:043d8c000020d463dc
:043d8d00003014638b
:043d8e0020301a6364
:043d8f00fe20dee351
:043d900000b00193eb
:043d9100ffe00093bc
:043d92000010011309
:043d93000020d463d5
:043d94000030146384
:043d95001e301c635d
:043d9600fe20dee34a
:043d970000c00193d4
:043d98000000021312
:043d9900fff00093a4
:043d9a000000011311
:043d9b001e20d063b3
:043d9c0000120213fc
:043d9d00002002936d
:043d9e00fe5216e3d8
:043d9f0000d00193bc
:043da000000002130a
:043da100fff000939c
:043da2000000011309
:043da3000000001309
:043da4001a20de63a0
:043da50000120213f3
:043da6000020029364
:043da700fe5214e3d1
:043da80000e00193a3
:043da9000000021301
:043daa00fff0009393
:043dab000000011300
:043dac000000001300
:043dad0000000013ff
:043dae001820da639c
:043daf0000120213e9
:043db000002002935a
:043db100fe5212e3c9
:043db20000f0019389
:043db30000000213f7
:043db400fff0009389
:043db50000000013f7
:043db60000000113f5
:043db7001620d86397
:043db80000120213e0
:043db9000020029351
:043dba00fe5214e3be
:043dbb00010001936f
:043dbc0000000213ee
:043dbd00fff0009380
:043dbe0000000013ee
:043dbf0000000113ec
:043dc00000000013ec
:043dc1001420d46393
:043dc20000120213d6
:043dc3000020029347
:043dc400fe5212e3b6
:043dc5000110019355
:043dc60000000213e4
:043dc700fff0009376
:043dc80000000013e4
:043dc90000000013e3
:043dca0000000113e1
:043dcb001220d0638f
:043dcc0000120213cc
:043dcd00002002933d
:043dce00fe5212e3ac
:043dcf00012001933b
:043dd00000000213da
:043dd100fff000936c
:043dd20000000113d9
:043dd3001020d06389
:043dd40000120213c4
:043dd5000020029335
:043dd600fe5216e3a0
:043dd7000130019323
:043dd80000000213d2
:043dd900fff0009364
:043dda0000000113d1
:043ddb0000000013d1
:043ddc000c20de6376
:043ddd0000120213bb
:043dde00002002932c
:043ddf00fe5214e399
:043de000014001930a
:043de10000000213c9
:043de200fff000935b
:043de30000000113c8
:043de40000000013c8
:043de50000000013c7
:043de6000a20da6372
:043de70000120213b1
:043de8000020029322
:043de900fe5212e391
:043dea0001500193f0
:043deb0000000213bf
:043dec00fff0009351
:043ded0000000013bf
:043dee0000000113bd
:043def000820d8636d
:043df00000120213a8
:043df1000020029319
:043df200fe5214e386
:043df30001600193d7
:043df40000000213b6
:043df500fff0009348
:043df60000000013b6
:043df70000000113b4
:043df80000000013b4
:043df9000620d46369
:043dfa00001202139e
:043dfb00002002930f
:043dfc00fe5212e37e
:043dfd0001700193bd
:043dfe0000000213ac
:043dff00fff000933e
:043e000000000013ab
:043e010000000013aa
:043e020000000113a8
:043e03000420d06364
:043e04000012021393
:043e05000020029304
:043e0600fe5212e373
:043e07000010009314
:043e08000000da6379
:043e09000010809392
:043e0a000010809391
:043e0b000010809390
:043e0c00001080938f
:043e0d00001080938e
:043e0e00001080938d
:043e0f0000300393e9
:043e10000180019399
:043e11000070946346
:043e12000230106307
:043e13000ff0000f9d
:043e140000018063c6
:043e15000011919374
:043e16000011e19323
:043e170005d0089337
:043e1800000185130d
:043e19000000007332
:043e1a000ff0000f96
:043e1b0000100193ff
:043e1c0005d0089332
:043e1d000000051389
:043e1e00000000732d
:043e1f00c00010735c
:043e2000000000009e
:043e2100000000009d
:043e2200000000009c
:043e2300000000009b
:043e2400000000009a
:043e25000000000099
:043e26000000000098
:043e27000000000097
:043e28000000000096
:043e29000000000095
:043e2a000000000094
:043e2b000000000093
:043e2c000000000092
:043e2d000000000091
:043e2e000000000090
:043e2f00000000008f
:043e3000000000008e
:043e3100000000008d
:043e3200000000008c
:043e3300000000008b
:043e3400000000008a
:043e35000000000089
:043e36000000000088
:043e37000000000087
:043e38000000000086
:043e39000000000085
:043e3a000000000084
:043e3b000000000083
:043e3c000000000082
:043e3d000000000081
:043e3e000000000080
:043e3f00000000007f
:043e4000000000007e
:043e4100000000007d
:043e4200000000007c
:043e4300000000007b
:043e4400000000007a
:043e45000000000079
:043e46000000000078
:043e47000000000077
:043e48000000000076
:043e49000000000075
:043e4a000000000074
:043e4b000000000073
:043e4c000000000072
:043e4d000000000071
:043e4e000000000070
:043e4f00000000006f
:043e5000000000006e
:043e5100000000006d
:043e5200000000006c
:043e5300000000006b
:043e5400000000006a
:043e55000000000069
:043e56000000000068
:043e57000000000067
:043e58000000000066
:043e59000000000065
:043e5a000000000064
:043e5b000000000063
:043e5c000000000062
:043e5d000000000061
:043e5e000000000060
:043e5f00000000005f
:043e6000000000005e
:043e6100000000005d
:043e6200000000005c
:043e6300000000005b
:043e6400000000005a
:043e65000000000059
:043e66000000000058
:043e67000000000057
:043e68000000000056
:043e69000000000055
:043e6a000000000054
:043e6b000000000053
:043e6c000000000052
:043e6d000000000051
:043e6e000000000050
:043e6f00000000004f
:043e7000000000004e
:043e7100000000004d
:043e7200000000004c
:043e7300000000004b
:043e7400000000004a
:043e75000000000049
:043e76000000000048
:043e77000000000047
:043e78000000000046
:043e79000000000045
:043e7a000000000044
:043e7b000000000043
:043e7c000000000042
:043e7d000000000041
:043e7e000000000040
:043e7f00000000003f
:043e8000000000003e
:043e8100000000003d
:043e8200000000003c
:043e8300000000003b
:043e8400000000003a
:043e85000000000039
:043e86000000000038
:043e87000000000037
:043e88000000000036
:043e89000000000035
:043e8a000000000034
:043e8b000000000033
:043e8c000000000032
:043e8d000000000031
:043e8e000000000030
:043e8f00000000002f
:043e9000000000002e
:043e9100000000002d
:043e9200000000002c
:043e9300000000002b
:043e9400000000002a
:043e95000000000029
:043e96000000000028
:043e97000000000027
:043e98000000000026
:043e99000000000025
:043e9a000000000024
:043e9b000000000023
:043e9c000000000022
:043e9d000000000021
:043e9e000000000020
:043e9f00000000001f
:043ea000000000001e
:043ea100000000001d
:043ea200000000001c
:043ea300000000001b
:043ea400000000001a
:043ea5000000000019
:043ea6000000000018
:043ea7000000000017
:043ea8000000000016
:043ea9000000000015
:043eaa000000000014
:043eab000000000013
:043eac000000000012
:043ead000000000011
:043eae000000000010
:043eaf00000000000f
:043eb000000000000e
:043eb100000000000d
:043eb200000000000c
:043eb300000000000b
:043eb400000000000a
:043eb5000000000009
:043eb6000000000008
:043eb7000000000007
:043eb8000000000006
:043eb9000000000005
:043eba000000000004
:043ebb000000000003
:043ebc000000000002
:043ebd000000000001
:043ebe000000000000
:043ebf0000000000ff
:043ec00000000000fe
:043ec10000000000fd
:043ec20000000000fc
:043ec30000000000fb
:043ec40000000000fa
:043ec50000000000f9
:043ec60000000000f8
:043ec70000000000f7
:043ec80000000000f6
:043ec90000000000f5
:043eca0000000000f4
:043ecb0000000000f3
:043ecc0000000000f2
:043ecd0000000000f1
:043ece0000000000f0
:043ecf0000000000ef
:043ed00000000000ee
:043ed10000000000ed
:043ed20000000000ec
:043ed30000000000eb
:043ed40000000000ea
:043ed50000000000e9
:043ed60000000000e8
:043ed70000000000e7
:043ed80000000000e6
:043ed90000000000e5
:043eda0000000000e4
:043edb0000000000e3
:043edc0000000000e2
:043edd0000000000e1
:043ede0000000000e0
:043edf0000000000df
:043ee00000000000de
:043ee10000000000dd
:043ee20000000000dc
:043ee30000000000db
:043ee40000000000da
:043ee50000000000d9
:043ee60000000000d8
:043ee70000000000d7
:043ee80000000000d6
:043ee90000000000d5
:043eea0000000000d4
:043eeb0000000000d3
:043eec0000000000d2
:043eed0000000000d1
:043eee0000000000d0
:043eef0000000000cf
:043ef00000000000ce
:043ef10000000000cd
:043ef20000000000cc
:043ef30000000000cb
:043ef40000000000ca
:043ef50000000000c9
:043ef60000000000c8
:043ef70000000000c7
:043ef80000000000c6
:043ef90000000000c5
:043efa0000000000c4
:043efb0000000000c3
:043efc0000000000c2
:043efd0000000000c1
:043efe0000000000c0
:043eff0000000000bf
:043f000000000000bd
:043f010000000000bc
:043f020000000000bb
:043f030000000000ba
:043f040000000000b9
:043f050000000000b8
:043f060000000000b7
:043f070000000000b6
:043f080000000000b5
:043f090000000000b4
:043f0a0000000000b3
:043f0b0000000000b2
:043f0c0000000000b1
:043f0d0000000000b0
:043f0e0000000000af
:043f0f0000000000ae
:043f100000000000ad
:043f110000000000ac
:043f120000000000ab
:043f130000000000aa
:043f140000000000a9
:043f150000000000a8
:043f160000000000a7
:043f170000000000a6
:043f180000000000a5
:043f190000000000a4
:043f1a0000000000a3
:043f1b0000000000a2
:043f1c0000000000a1
:043f1d0000000000a0
:043f1e00000000009f
:043f1f00000000009e
:043f2000000000009d
:043f2100000000009c
:043f2200000000009b
:043f2300000000009a
:043f24000000000099
:043f25000000000098
:043f26000000000097
:043f27000000000096
:043f28000000000095
:043f29000000000094
:043f2a000000000093
:043f2b000000000092
:043f2c000000000091
:043f2d000000000090
:043f2e00000000008f
:043f2f00000000008e
:043f3000000000008d
:043f3100000000008c
:043f3200000000008b
:043f3300000000008a
:043f34000000000089
:043f35000000000088
:043f36000000000087
:043f37000000000086
:043f38000000000085
:043f39000000000084
:043f3a000000000083
:043f3b000000000082
:043f3c000000000081
:043f3d000000000080
:043f3e00000000007f
:043f3f00000000007e
:043f4000000000007d
:043f4100000000007c
:043f4200000000007b
:043f4300000000007a
:043f44000000000079
:043f45000000000078
:043f46000000000077
:043f47000000000076
:043f48000000000075
:043f49000000000074
:043f4a000000000073
:043f4b000000000072
:043f4c000000000071
:043f4d000000000070
:043f4e00000000006f
:043f4f00000000006e
:043f5000000000006d
:043f5100000000006c
:043f5200000000006b
:043f5300000000006a
:043f54000000000069
:043f55000000000068
:043f56000000000067
:043f57000000000066
:043f58000000000065
:043f59000000000064
:043f5a000000000063
:043f5b000000000062
:043f5c000000000061
:043f5d000000000060
:043f5e00000000005f
:043f5f00000000005e
:043f6000000000005d
:043f6100000000005c
:043f6200000000005b
:043f6300000000005a
:043f64000000000059
:043f65000000000058
:043f66000000000057
:043f67000000000056
:043f68000000000055
:043f69000000000054
:043f6a000000000053
:043f6b000000000052
:043f6c000000000051
:043f6d000000000050
:043f6e00000000004f
:043f6f00000000004e
:043f7000000000004d
:043f7100000000004c
:043f7200000000004b
:043f7300000000004a
:043f74000000000049
:043f75000000000048
:043f76000000000047
:043f77000000000046
:043f78000000000045
:043f79000000000044
:043f7a000000000043
:043f7b000000000042
:043f7c000000000041
:043f7d000000000040
:043f7e00000000003f
:043f7f00000000003e
:043f8000000000003d
:043f8100000000003c
:043f8200000000003b
:043f8300000000003a
:043f84000000000039
:043f85000000000038
:043f86000000000037
:043f87000000000036
:043f88000000000035
:043f89000000000034
:043f8a000000000033
:043f8b000000000032
:043f8c000000000031
:043f8d000000000030
:043f8e00000000002f
:043f8f00000000002e
:043f9000000000002d
:043f9100000000002c
:043f9200000000002b
:043f9300000000002a
:043f94000000000029
:043f95000000000028
:043f96000000000027
:043f97000000000026
:043f98000000000025
:043f99000000000024
:043f9a000000000023
:043f9b000000000022
:043f9c000000000021
:043f9d000000000020
:043f9e00000000001f
:043f9f00000000001e
:043fa000000000001d
:043fa100000000001c
:043fa200000000001b
:043fa300000000001a
:043fa4000000000019
:043fa5000000000018
:043fa6000000000017
:043fa7000000000016
:043fa8000000000015
:043fa9000000000014
:043faa000000000013
:043fab000000000012
:043fac000000000011
:043fad000000000010
:043fae00000000000f
:043faf00000000000e
:043fb000000000000d
:043fb100000000000c
:043fb200000000000b
:043fb300000000000a
:043fb4000000000009
:043fb5000000000008
:043fb6000000000007
:043fb7000000000006
:043fb8000000000005
:043fb9000000000004
:043fba000000000003
:043fbb000000000002
:043fbc000000000001
:043fbd000000000000
:043fbe0000000000ff
:043fbf0000000000fe
:043fc00000000000fd
:043fc10000000000fc
:043fc20000000000fb
:043fc30000000000fa
:043fc40000000000f9
:043fc50000000000f8
:043fc60000000000f7
:043fc70000000000f6
:043fc80000000000f5
:043fc90000000000f4
:043fca0000000000f3
:043fcb0000000000f2
:043fcc0000000000f1
:043fcd0000000000f0
:043fce0000000000ef
:043fcf0000000000ee
:043fd00000000000ed
:043fd10000000000ec
:043fd20000000000eb
:043fd30000000000ea
:043fd40000000000e9
:043fd50000000000e8
:043fd60000000000e7
:043fd70000000000e6
:043fd80000000000e5
:043fd90000000000e4
:043fda0000000000e3
:043fdb0000000000e2
:043fdc0000000000e1
:043fdd0000000000e0
:043fde0000000000df
:043fdf0000000000de
:043fe00000000000dd
:043fe10000000000dc
:043fe20000000000db
:043fe30000000000da
:043fe40000000000d9
:043fe50000000000d8
:043fe60000000000d7
:043fe70000000000d6
:043fe80000000000d5
:043fe90000000000d4
:043fea0000000000d3
:043feb0000000000d2
:043fec0000000000d1
:043fed0000000000d0
:043fee0000000000cf
:043fef0000000000ce
:043ff00000000000cd
:043ff10000000000cc
:043ff20000000000cb
:043ff30000000000ca
:043ff40000000000c9
:043ff50000000000c8
:043ff60000000000c7
:043ff70000000000c6
:043ff80000000000c5
:043ff90000000000c4
:043ffa0000000000c3
:043ffb0000000000c2
:043ffc0000000000c1
:043ffd0000000000c0
:043ffe0000000000bf
:043fff0000000000be
:0440000000000000bc
:0440010000000000bb
:0440020000000000ba
:0440030000000000b9
:0440040000000000b8
:0440050000000000b7
:0440060000000000b6
:0440070000000000b5
:0440080000000000b4
:0440090000000000b3
:04400a0000000000b2
:04400b0000000000b1
:04400c0000000000b0
:04400d0000000000af
:04400e0000000000ae
:04400f0000000000ad
:0440100000000000ac
:0440110000000000ab
:0440120000000000aa
:0440130000000000a9
:0440140000000000a8
:0440150000000000a7
:0440160000000000a6
:0440170000000000a5
:0440180000000000a4
:0440190000000000a3
:04401a0000000000a2
:04401b0000000000a1
:04401c0000000000a0
:04401d00000000009f
:04401e00000000009e
:04401f00000000009d
:04402000000000009c
:04402100000000009b
:04402200000000009a
:044023000000000099
:044024000000000098
:044025000000000097
:044026000000000096
:044027000000000095
:044028000000000094
:044029000000000093
:04402a000000000092
:04402b000000000091
:04402c000000000090
:04402d00000000008f
:04402e00000000008e
:04402f00000000008d
:04403000000000008c
:04403100000000008b
:04403200000000008a
:044033000000000089
:044034000000000088
:044035000000000087
:044036000000000086
:044037000000000085
:044038000000000084
:044039000000000083
:04403a000000000082
:04403b000000000081
:04403c000000000080
:04403d00000000007f
:04403e00000000007e
:04403f00000000007d
:04404000000000007c
:04404100000000007b
:04404200000000007a
:044043000000000079
:044044000000000078
:044045000000000077
:044046000000000076
:044047000000000075
:044048000000000074
:044049000000000073
:04404a000000000072
:04404b000000000071
:04404c000000000070
:04404d00000000006f
:04404e00000000006e
:04404f00000000006d
:04405000000000006c
:04405100000000006b
:04405200000000006a
:044053000000000069
:044054000000000068
:044055000000000067
:044056000000000066
:044057000000000065
:044058000000000064
:044059000000000063
:04405a000000000062
:04405b000000000061
:04405c000000000060
:04405d00000000005f
:04405e00000000005e
:04405f00000000005d
:04406000000000005c
:04406100000000005b
:04406200000000005a
:044063000000000059
:044064000000000058
:044065000000000057
:044066000000000056
:044067000000000055
:044068000000000054
:044069000000000053
:04406a000000000052
:04406b000000000051
:04406c000000000050
:04406d00000000004f
:04406e00000000004e
:04406f00000000004d
:04407000000000004c
:04407100000000004b
:04407200000000004a
:044073000000000049
:044074000000000048
:044075000000000047
:044076000000000046
:044077000000000045
:044078000000000044
:044079000000000043
:04407a000000000042
:04407b000000000041
:04407c000000000040
:04407d00000000003f
:04407e00000000003e
:04407f00000000003d
:04408000000000003c
:04408100000000003b
:04408200000000003a
:044083000000000039
:044084000000000038
:044085000000000037
:044086000000000036
:044087000000000035
:044088000000000034
:044089000000000033
:04408a000000000032
:04408b000000000031
:04408c000000000030
:04408d00000000002f
:04408e00000000002e
:04408f00000000002d
:04409000000000002c
:04409100000000002b
:04409200000000002a
:044093000000000029
:044094000000000028
:044095000000000027
:044096000000000026
:044097000000000025
:044098000000000024
:044099000000000023
:04409a000000000022
:04409b000000000021
:04409c000000000020
:04409d00000000001f
:04409e00000000001e
:04409f00000000001d
:0440a000000000001c
:0440a100000000001b
:0440a200000000001a
:0440a3000000000019
:0440a4000000000018
:0440a5000000000017
:0440a6000000000016
:0440a7000000000015
:0440a8000000000014
:0440a9000000000013
:0440aa000000000012
:0440ab000000000011
:0440ac000000000010
:0440ad00000000000f
:0440ae00000000000e
:0440af00000000000d
:0440b000000000000c
:0440b100000000000b
:0440b200000000000a
:0440b3000000000009
:0440b4000000000008
:0440b5000000000007
:0440b6000000000006
:0440b7000000000005
:0440b8000000000004
:0440b9000000000003
:0440ba000000000002
:0440bb000000000001
:0440bc000000000000
:0440bd0000000000ff
:0440be0000000000fe
:0440bf0000000000fd
:0440c00000000000fc
:0440c10000000000fb
:0440c20000000000fa
:0440c30000000000f9
:0440c40000000000f8
:0440c50000000000f7
:0440c60000000000f6
:0440c70000000000f5
:0440c80000000000f4
:0440c90000000000f3
:0440ca0000000000f2
:0440cb0000000000f1
:0440cc0000000000f0
:0440cd0000000000ef
:0440ce0000000000ee
:0440cf0000000000ed
:0440d00000000000ec
:0440d10000000000eb
:0440d20000000000ea
:0440d30000000000e9
:0440d40000000000e8
:0440d50000000000e7
:0440d60000000000e6
:0440d70000000000e5
:0440d80000000000e4
:0440d90000000000e3
:0440da0000000000e2
:0440db0000000000e1
:0440dc0000000000e0
:0440dd0000000000df
:0440de0000000000de
:0440df0000000000dd
:0440e00000000000dc
:0440e10000000000db
:0440e20000000000da
:0440e30000000000d9
:0440e40000000000d8
:0440e50000000000d7
:0440e60000000000d6
:0440e70000000000d5
:0440e80000000000d4
:0440e90000000000d3
:0440ea0000000000d2
:0440eb0000000000d1
:0440ec0000000000d0
:0440ed0000000000cf
:0440ee0000000000ce
:0440ef0000000000cd
:0440f00000000000cc
:0440f10000000000cb
:0440f20000000000ca
:0440f30000000000c9
:0440f40000000000c8
:0440f50000000000c7
:0440f60000000000c6
:0440f70000000000c5
:0440f80000000000c4
:0440f90000000000c3
:0440fa0000000000c2
:0440fb0000000000c1
:0440fc0000000000c0
:0440fd0000000000bf
:0440fe0000000000be
:0440ff0000000000bd
:00000001FF
